{
  "contractName": "Campaign",
  "abi": [
    {
      "constant": true,
      "inputs": [
        {
          "name": "",
          "type": "uint256"
        }
      ],
      "name": "funderStructs",
      "outputs": [
        {
          "name": "funder",
          "type": "address"
        },
        {
          "name": "amount",
          "type": "uint256"
        }
      ],
      "payable": false,
      "stateMutability": "view",
      "type": "function"
    },
    {
      "constant": true,
      "inputs": [],
      "name": "refundsSent",
      "outputs": [
        {
          "name": "",
          "type": "bool"
        }
      ],
      "payable": false,
      "stateMutability": "view",
      "type": "function"
    },
    {
      "constant": true,
      "inputs": [],
      "name": "deadline",
      "outputs": [
        {
          "name": "",
          "type": "uint256"
        }
      ],
      "payable": false,
      "stateMutability": "view",
      "type": "function"
    },
    {
      "constant": true,
      "inputs": [],
      "name": "goal",
      "outputs": [
        {
          "name": "",
          "type": "uint256"
        }
      ],
      "payable": false,
      "stateMutability": "view",
      "type": "function"
    },
    {
      "constant": true,
      "inputs": [],
      "name": "isOpen",
      "outputs": [
        {
          "name": "",
          "type": "bool"
        }
      ],
      "payable": false,
      "stateMutability": "view",
      "type": "function"
    },
    {
      "constant": true,
      "inputs": [],
      "name": "fundsRaised",
      "outputs": [
        {
          "name": "",
          "type": "uint256"
        }
      ],
      "payable": false,
      "stateMutability": "view",
      "type": "function"
    },
    {
      "constant": true,
      "inputs": [],
      "name": "owner",
      "outputs": [
        {
          "name": "",
          "type": "address"
        }
      ],
      "payable": false,
      "stateMutability": "view",
      "type": "function"
    },
    {
      "inputs": [
        {
          "name": "duration",
          "type": "uint256"
        },
        {
          "name": "_goal",
          "type": "uint256"
        }
      ],
      "payable": false,
      "stateMutability": "nonpayable",
      "type": "constructor"
    },
    {
      "anonymous": false,
      "inputs": [
        {
          "indexed": false,
          "name": "sender",
          "type": "address"
        },
        {
          "indexed": false,
          "name": "amount",
          "type": "uint256"
        }
      ],
      "name": "LogContribution",
      "type": "event"
    },
    {
      "anonymous": false,
      "inputs": [
        {
          "indexed": false,
          "name": "funder",
          "type": "address"
        },
        {
          "indexed": false,
          "name": "amount",
          "type": "uint256"
        }
      ],
      "name": "LogRefundSent",
      "type": "event"
    },
    {
      "anonymous": false,
      "inputs": [
        {
          "indexed": false,
          "name": "beneficiary",
          "type": "address"
        },
        {
          "indexed": false,
          "name": "amount",
          "type": "uint256"
        }
      ],
      "name": "LogWithdrawal",
      "type": "event"
    },
    {
      "constant": true,
      "inputs": [],
      "name": "isSuccess",
      "outputs": [
        {
          "name": "isIndeed",
          "type": "bool"
        }
      ],
      "payable": false,
      "stateMutability": "view",
      "type": "function"
    },
    {
      "constant": true,
      "inputs": [],
      "name": "hasFailed",
      "outputs": [
        {
          "name": "hasIndeed",
          "type": "bool"
        }
      ],
      "payable": false,
      "stateMutability": "view",
      "type": "function"
    },
    {
      "constant": false,
      "inputs": [],
      "name": "contribute",
      "outputs": [
        {
          "name": "success",
          "type": "bool"
        }
      ],
      "payable": true,
      "stateMutability": "payable",
      "type": "function"
    },
    {
      "constant": false,
      "inputs": [],
      "name": "withdrawFunds",
      "outputs": [
        {
          "name": "success",
          "type": "bool"
        }
      ],
      "payable": false,
      "stateMutability": "nonpayable",
      "type": "function"
    },
    {
      "constant": false,
      "inputs": [],
      "name": "sendRefunds",
      "outputs": [
        {
          "name": "success",
          "type": "bool"
        }
      ],
      "payable": false,
      "stateMutability": "nonpayable",
      "type": "function"
    }
  ],
  "bytecode": "0x6060604052341561000f57600080fd5b604051604080610ad983398101604052808051906020019091908051906020019091905050336000806101000a81548173ffffffffffffffffffffffffffffffffffffffff021916908373ffffffffffffffffffffffffffffffffffffffff160217905550814301600181905550806002819055506001600460006101000a81548160ff0219169083151502179055505050610a29806100b06000396000f3006060604052600436106100ba576000357c0100000000000000000000000000000000000000000000000000000000900463ffffffff16806302c06023146100bf5780630b6c754b14610129578063141b716914610156578063158c98751461018357806324600fc3146101b057806329dcb0cf146101dd578063401938831461020657806347535d7b1461022f5780636681b9fd1461025c578063708b1fed146102855780638da5cb5b146102b2578063d7bb99ba14610307575b600080fd5b34156100ca57600080fd5b6100e06004808035906020019091905050610329565b604051808373ffffffffffffffffffffffffffffffffffffffff1673ffffffffffffffffffffffffffffffffffffffff1681526020018281526020019250505060405180910390f35b341561013457600080fd5b61013c61037c565b604051808215151515815260200191505060405180910390f35b341561016157600080fd5b61016961038b565b604051808215151515815260200191505060405180910390f35b341561018e57600080fd5b6101966105bf565b604051808215151515815260200191505060405180910390f35b34156101bb57600080fd5b6101c36105d2565b604051808215151515815260200191505060405180910390f35b34156101e857600080fd5b6101f0610769565b6040518082815260200191505060405180910390f35b341561021157600080fd5b61021961076f565b6040518082815260200191505060405180910390f35b341561023a57600080fd5b610242610775565b604051808215151515815260200191505060405180910390f35b341561026757600080fd5b61026f610788565b6040518082815260200191505060405180910390f35b341561029057600080fd5b61029861078e565b604051808215151515815260200191505060405180910390f35b34156102bd57600080fd5b6102c56107a9565b604051808273ffffffffffffffffffffffffffffffffffffffff1673ffffffffffffffffffffffffffffffffffffffff16815260200191505060405180910390f35b61030f6107ce565b604051808215151515815260200191505060405180910390f35b60058181548110151561033857fe5b90600052602060002090600202016000915090508060000160009054906101000a900473ffffffffffffffffffffffffffffffffffffffff16908060010154905082565b60006002546003541015905090565b60008060008060009054906101000a900473ffffffffffffffffffffffffffffffffffffffff1673ffffffffffffffffffffffffffffffffffffffff163373ffffffffffffffffffffffffffffffffffffffff161415156103eb57600080fd5b600460019054906101000a900460ff161561040557600080fd5b61040d61078e565b151561041857600080fd5b6005805490509150600090505b8181101561059b5760058181548110151561043c57fe5b906000526020600020906002020160000160009054906101000a900473ffffffffffffffffffffffffffffffffffffffff1673ffffffffffffffffffffffffffffffffffffffff166108fc60058381548110151561049657fe5b9060005260206000209060020201600101549081150290604051600060405180830381858888f19350505050507fdd896e09a507baf21c108627cf41469f315fb779fe323f5e1c6154fd5d869e696005828154811015156104f357fe5b906000526020600020906002020160000160009054906101000a900473ffffffffffffffffffffffffffffffffffffffff1660058381548110151561053457fe5b906000526020600020906002020160010154604051808373ffffffffffffffffffffffffffffffffffffffff1673ffffffffffffffffffffffffffffffffffffffff1681526020018281526020019250505060405180910390a18080600101915050610425565b6001600460016101000a81548160ff02191690831515021790555060019250505090565b600460019054906101000a900460ff1681565b6000806000809054906101000a900473ffffffffffffffffffffffffffffffffffffffff1673ffffffffffffffffffffffffffffffffffffffff163373ffffffffffffffffffffffffffffffffffffffff1614151561063057600080fd5b61063861037c565b151561064357600080fd5b3073ffffffffffffffffffffffffffffffffffffffff163190506000809054906101000a900473ffffffffffffffffffffffffffffffffffffffff1673ffffffffffffffffffffffffffffffffffffffff166108fc829081150290604051600060405180830381858888f1935050505015156106be57600080fd5b7fb4214c8c54fc7442f36d3682f59aebaf09358a4431835b30efb29d52cf9e1e916000809054906101000a900473ffffffffffffffffffffffffffffffffffffffff163073ffffffffffffffffffffffffffffffffffffffff1631604051808373ffffffffffffffffffffffffffffffffffffffff1673ffffffffffffffffffffffffffffffffffffffff1681526020018281526020019250505060405180910390a1600191505090565b60015481565b60025481565b600460009054906101000a900460ff1681565b60035481565b60006002546003541080156107a4575060015443115b905090565b6000809054906101000a900473ffffffffffffffffffffffffffffffffffffffff1681565b60006107d861094d565b60003414156107e657600080fd5b6107ee61037c565b156107f857600080fd5b61080061078e565b1561080a57600080fd5b3460036000828254019250508190555033816000019073ffffffffffffffffffffffffffffffffffffffff16908173ffffffffffffffffffffffffffffffffffffffff16815250503481602001818152505060058054806001018281610870919061097d565b9160005260206000209060020201600083909190915060008201518160000160006101000a81548173ffffffffffffffffffffffffffffffffffffffff021916908373ffffffffffffffffffffffffffffffffffffffff160217905550602082015181600101555050507f370510fa7e8c74204b8d2fd52b7a0837e535ea0c1491fd4e13730ce825e405243334604051808373ffffffffffffffffffffffffffffffffffffffff1673ffffffffffffffffffffffffffffffffffffffff1681526020018281526020019250505060405180910390a1600191505090565b6040805190810160405280600073ffffffffffffffffffffffffffffffffffffffff168152602001600081525090565b8154818355818115116109aa576002028160020283600052602060002091820191016109a991906109af565b5b505050565b6109fa91905b808211156109f657600080820160006101000a81549073ffffffffffffffffffffffffffffffffffffffff02191690556001820160009055506002016109b5565b5090565b905600a165627a7a7230582082a05d4746d606070219c978e7347ee7f19c56f51fac8092885640f45c794f320029",
  "source": "pragma solidity ^0.4.6;\r\n\r\ncontract Campaign {\r\n\r\n    address public owner;\r\n    uint    public deadline;\r\n    uint    public goal;\r\n    uint    public fundsRaised;\r\n    bool    public isOpen;\r\n    bool    public refundsSent;\r\n\r\n    struct FunderStruct {\r\n        address funder;\r\n        uint amount;\r\n    }\r\n\r\n    FunderStruct[] public funderStructs;\r\n\r\n    event LogContribution(address sender, uint amount);\r\n    event LogRefundSent(address funder, uint amount);\r\n    event LogWithdrawal(address beneficiary, uint amount);\r\n\r\n    function Campaign(uint duration, uint _goal) {\r\n        owner = msg.sender;\r\n        deadline = block.number + duration;\r\n        goal = _goal;\r\n        isOpen = true;\r\n    }\r\n\r\n    function isSuccess()\r\n        public\r\n        constant\r\n        returns (bool isIndeed)\r\n        {\r\n            return(fundsRaised >= goal);\r\n        }\r\n\r\n    function hasFailed() \r\n        public\r\n        constant\r\n        returns (bool hasIndeed)\r\n        {\r\n            return (fundsRaised < goal && block.number > deadline);\r\n        }\r\n\r\n    function contribute()\r\n        public\r\n        payable\r\n        returns(bool success)\r\n        {\r\n            if (msg.value==0)throw;\r\n            if(isSuccess()) throw;\r\n            if(hasFailed()) throw;\r\n\r\n            fundsRaised += msg.value;\r\n            FunderStruct memory newFunder;\r\n            newFunder.funder = msg.sender;\r\n            newFunder.amount = msg.value;\r\n            funderStructs.push(newFunder);\r\n            LogContribution(msg.sender,msg.value);\r\n            return true;\r\n        }\r\n\r\n    function withdrawFunds()\r\n        public\r\n        returns (bool success)\r\n        {\r\n            if(msg.sender != owner) throw;\r\n            if (!isSuccess()) throw;\r\n            uint amount = this.balance;\r\n            if (!owner.send(amount)) throw;\r\n            LogWithdrawal(owner, this.balance);\r\n            return true;\r\n        }\r\n\r\n    function sendRefunds()\r\n        public \r\n        returns (bool success)\r\n        {\r\n            if (msg.sender != owner) throw;\r\n            if (refundsSent) throw;\r\n            if (!hasFailed()) throw;\r\n\r\n            uint funderCount = funderStructs.length;\r\n            for (uint i=0;i<funderCount;i++) {\r\n                funderStructs[i].funder.send(funderStructs[i].amount);\r\n                LogRefundSent(funderStructs[i].funder, funderStructs[i].amount);\r\n            }\r\n            refundsSent = true;\r\n            return true;\r\n        }\r\n\r\n}",
  "sourcePath": "C:\\dapps\\B9LabClass\\contracts\\Campaign.sol",
  "compiler": {
    "name": "solc",
    "version": "0.4.19+commit.c4cbbb05.Emscripten.clang"
  },
  "schemaVersion": "1.0.1",
  "updatedAt": "2018-04-07T22:59:15.252Z"
}