{
  "contractName": "Mod4PopQuiz2",
  "abi": [
    {
      "constant": true,
      "inputs": [
        {
          "name": "",
          "type": "uint256"
        }
      ],
      "name": "funderStructs",
      "outputs": [
        {
          "name": "funder",
          "type": "address"
        },
        {
          "name": "amount",
          "type": "uint256"
        }
      ],
      "payable": false,
      "stateMutability": "view",
      "type": "function"
    },
    {
      "constant": true,
      "inputs": [],
      "name": "refundsSent",
      "outputs": [
        {
          "name": "",
          "type": "bool"
        }
      ],
      "payable": false,
      "stateMutability": "view",
      "type": "function"
    },
    {
      "constant": true,
      "inputs": [],
      "name": "deadline",
      "outputs": [
        {
          "name": "",
          "type": "uint256"
        }
      ],
      "payable": false,
      "stateMutability": "view",
      "type": "function"
    },
    {
      "constant": true,
      "inputs": [],
      "name": "goal",
      "outputs": [
        {
          "name": "",
          "type": "uint256"
        }
      ],
      "payable": false,
      "stateMutability": "view",
      "type": "function"
    },
    {
      "constant": true,
      "inputs": [],
      "name": "isOpen",
      "outputs": [
        {
          "name": "",
          "type": "bool"
        }
      ],
      "payable": false,
      "stateMutability": "view",
      "type": "function"
    },
    {
      "constant": true,
      "inputs": [],
      "name": "fundsRaised",
      "outputs": [
        {
          "name": "",
          "type": "uint256"
        }
      ],
      "payable": false,
      "stateMutability": "view",
      "type": "function"
    },
    {
      "constant": true,
      "inputs": [],
      "name": "owner",
      "outputs": [
        {
          "name": "",
          "type": "address"
        }
      ],
      "payable": false,
      "stateMutability": "view",
      "type": "function"
    },
    {
      "inputs": [
        {
          "name": "duration",
          "type": "uint256"
        },
        {
          "name": "_goal",
          "type": "uint256"
        }
      ],
      "payable": false,
      "stateMutability": "nonpayable",
      "type": "constructor"
    },
    {
      "anonymous": false,
      "inputs": [
        {
          "indexed": false,
          "name": "sender",
          "type": "address"
        },
        {
          "indexed": false,
          "name": "amount",
          "type": "uint256"
        }
      ],
      "name": "LogContribution",
      "type": "event"
    },
    {
      "anonymous": false,
      "inputs": [
        {
          "indexed": false,
          "name": "funder",
          "type": "address"
        },
        {
          "indexed": false,
          "name": "amount",
          "type": "uint256"
        }
      ],
      "name": "LogRefundSent",
      "type": "event"
    },
    {
      "anonymous": false,
      "inputs": [
        {
          "indexed": false,
          "name": "beneficiary",
          "type": "address"
        },
        {
          "indexed": false,
          "name": "amount",
          "type": "uint256"
        }
      ],
      "name": "LogWithdrawal",
      "type": "event"
    },
    {
      "constant": true,
      "inputs": [],
      "name": "isSuccess",
      "outputs": [
        {
          "name": "isIndeed",
          "type": "bool"
        }
      ],
      "payable": false,
      "stateMutability": "view",
      "type": "function"
    },
    {
      "constant": true,
      "inputs": [],
      "name": "hasFailed",
      "outputs": [
        {
          "name": "hasIndeed",
          "type": "bool"
        }
      ],
      "payable": false,
      "stateMutability": "view",
      "type": "function"
    },
    {
      "constant": false,
      "inputs": [],
      "name": "contribute",
      "outputs": [
        {
          "name": "success",
          "type": "bool"
        }
      ],
      "payable": true,
      "stateMutability": "payable",
      "type": "function"
    },
    {
      "constant": false,
      "inputs": [],
      "name": "withdrawFunds",
      "outputs": [
        {
          "name": "success",
          "type": "bool"
        }
      ],
      "payable": false,
      "stateMutability": "nonpayable",
      "type": "function"
    },
    {
      "constant": false,
      "inputs": [],
      "name": "nameOfIt",
      "outputs": [
        {
          "name": "",
          "type": "bool"
        }
      ],
      "payable": false,
      "stateMutability": "nonpayable",
      "type": "function"
    },
    {
      "constant": false,
      "inputs": [],
      "name": "sendRefunds",
      "outputs": [
        {
          "name": "success",
          "type": "bool"
        }
      ],
      "payable": false,
      "stateMutability": "nonpayable",
      "type": "function"
    }
  ],
  "bytecode": "0x6060604052341561000f57600080fd5b604051604080610b1a83398101604052808051906020019091908051906020019091905050336000806101000a81548173ffffffffffffffffffffffffffffffffffffffff021916908373ffffffffffffffffffffffffffffffffffffffff160217905550814301600181905550806002819055506001600460006101000a81548160ff0219169083151502179055505050610a6a806100b06000396000f3006060604052600436106100c5576000357c0100000000000000000000000000000000000000000000000000000000900463ffffffff16806302c06023146100ca5780630b6c754b14610134578063141b716914610161578063158c98751461018e57806324600fc3146101bb57806329dcb0cf146101e8578063401938831461021157806347535d7b1461023a5780636681b9fd14610267578063708b1fed146102905780638da5cb5b146102bd578063d178421314610312578063d7bb99ba1461033f575b600080fd5b34156100d557600080fd5b6100eb6004808035906020019091905050610361565b604051808373ffffffffffffffffffffffffffffffffffffffff1673ffffffffffffffffffffffffffffffffffffffff1681526020018281526020019250505060405180910390f35b341561013f57600080fd5b6101476103b4565b604051808215151515815260200191505060405180910390f35b341561016c57600080fd5b6101746103c3565b604051808215151515815260200191505060405180910390f35b341561019957600080fd5b6101a16105f7565b604051808215151515815260200191505060405180910390f35b34156101c657600080fd5b6101ce61060a565b604051808215151515815260200191505060405180910390f35b34156101f357600080fd5b6101fb6107a1565b6040518082815260200191505060405180910390f35b341561021c57600080fd5b6102246107a7565b6040518082815260200191505060405180910390f35b341561024557600080fd5b61024d6107ad565b604051808215151515815260200191505060405180910390f35b341561027257600080fd5b61027a6107c0565b6040518082815260200191505060405180910390f35b341561029b57600080fd5b6102a36107c6565b604051808215151515815260200191505060405180910390f35b34156102c857600080fd5b6102d06107e1565b604051808273ffffffffffffffffffffffffffffffffffffffff1673ffffffffffffffffffffffffffffffffffffffff16815260200191505060405180910390f35b341561031d57600080fd5b610325610806565b604051808215151515815260200191505060405180910390f35b61034761080f565b604051808215151515815260200191505060405180910390f35b60058181548110151561037057fe5b90600052602060002090600202016000915090508060000160009054906101000a900473ffffffffffffffffffffffffffffffffffffffff16908060010154905082565b60006002546003541015905090565b60008060008060009054906101000a900473ffffffffffffffffffffffffffffffffffffffff1673ffffffffffffffffffffffffffffffffffffffff163373ffffffffffffffffffffffffffffffffffffffff1614151561042357600080fd5b600460019054906101000a900460ff161561043d57600080fd5b6104456107c6565b151561045057600080fd5b6005805490509150600090505b818110156105d35760058181548110151561047457fe5b906000526020600020906002020160000160009054906101000a900473ffffffffffffffffffffffffffffffffffffffff1673ffffffffffffffffffffffffffffffffffffffff166108fc6005838154811015156104ce57fe5b9060005260206000209060020201600101549081150290604051600060405180830381858888f19350505050507fdd896e09a507baf21c108627cf41469f315fb779fe323f5e1c6154fd5d869e6960058281548110151561052b57fe5b906000526020600020906002020160000160009054906101000a900473ffffffffffffffffffffffffffffffffffffffff1660058381548110151561056c57fe5b906000526020600020906002020160010154604051808373ffffffffffffffffffffffffffffffffffffffff1673ffffffffffffffffffffffffffffffffffffffff1681526020018281526020019250505060405180910390a1808060010191505061045d565b6001600460016101000a81548160ff02191690831515021790555060019250505090565b600460019054906101000a900460ff1681565b6000806000809054906101000a900473ffffffffffffffffffffffffffffffffffffffff1673ffffffffffffffffffffffffffffffffffffffff163373ffffffffffffffffffffffffffffffffffffffff1614151561066857600080fd5b6106706103b4565b151561067b57600080fd5b3073ffffffffffffffffffffffffffffffffffffffff163190506000809054906101000a900473ffffffffffffffffffffffffffffffffffffffff1673ffffffffffffffffffffffffffffffffffffffff166108fc829081150290604051600060405180830381858888f1935050505015156106f657600080fd5b7fb4214c8c54fc7442f36d3682f59aebaf09358a4431835b30efb29d52cf9e1e916000809054906101000a900473ffffffffffffffffffffffffffffffffffffffff163073ffffffffffffffffffffffffffffffffffffffff1631604051808373ffffffffffffffffffffffffffffffffffffffff1673ffffffffffffffffffffffffffffffffffffffff1681526020018281526020019250505060405180910390a1600191505090565b60015481565b60025481565b600460009054906101000a900460ff1681565b60035481565b60006002546003541080156107dc575060015443115b905090565b6000809054906101000a900473ffffffffffffffffffffffffffffffffffffffff1681565b60006001905090565b600061081961098e565b600034141561082757600080fd5b61082f6103b4565b1561083957600080fd5b6108416107c6565b1561084b57600080fd5b3460036000828254019250508190555033816000019073ffffffffffffffffffffffffffffffffffffffff16908173ffffffffffffffffffffffffffffffffffffffff168152505034816020018181525050600580548060010182816108b191906109be565b9160005260206000209060020201600083909190915060008201518160000160006101000a81548173ffffffffffffffffffffffffffffffffffffffff021916908373ffffffffffffffffffffffffffffffffffffffff160217905550602082015181600101555050507f370510fa7e8c74204b8d2fd52b7a0837e535ea0c1491fd4e13730ce825e405243334604051808373ffffffffffffffffffffffffffffffffffffffff1673ffffffffffffffffffffffffffffffffffffffff1681526020018281526020019250505060405180910390a1600191505090565b6040805190810160405280600073ffffffffffffffffffffffffffffffffffffffff168152602001600081525090565b8154818355818115116109eb576002028160020283600052602060002091820191016109ea91906109f0565b5b505050565b610a3b91905b80821115610a3757600080820160006101000a81549073ffffffffffffffffffffffffffffffffffffffff02191690556001820160009055506002016109f6565b5090565b905600a165627a7a723058209dd729b42fb7e0b17ef9c4a5cef1cf5817655a46533775f381d640e9356666020029",
  "source": "pragma solidity ^0.4.6;\r\n\r\ncontract Mod4PopQuiz2 {\r\n\r\n    address public owner;\r\n    uint    public deadline;\r\n    uint    public goal;\r\n    uint    public fundsRaised;\r\n    bool    public isOpen;\r\n    bool    public refundsSent;\r\n\r\n    struct FunderStruct {\r\n        address funder;\r\n        uint amount;\r\n    }\r\n\r\n    FunderStruct[] public funderStructs;\r\n\r\n    event LogContribution(address sender, uint amount);\r\n    event LogRefundSent(address funder, uint amount);\r\n    event LogWithdrawal(address beneficiary, uint amount);\r\n\r\n    function Mod4PopQuiz2(uint duration, uint _goal) {\r\n        owner = msg.sender;\r\n        deadline = block.number + duration;\r\n        goal = _goal;\r\n        isOpen = true;\r\n    }\r\n\r\n    function isSuccess()\r\n        public\r\n        constant\r\n        returns (bool isIndeed)\r\n        {\r\n            return(fundsRaised >= goal);\r\n        }\r\n\r\n    function hasFailed() \r\n        public\r\n        constant\r\n        returns (bool hasIndeed)\r\n        {\r\n            return (fundsRaised < goal && block.number > deadline);\r\n        }\r\n\r\n    function contribute()\r\n        public\r\n        payable\r\n        returns(bool success)\r\n        {\r\n            if (msg.value==0)throw;\r\n            if(isSuccess()) throw;\r\n            if(hasFailed()) throw;\r\n\r\n            fundsRaised += msg.value;\r\n            FunderStruct memory newFunder;\r\n            newFunder.funder = msg.sender;\r\n            newFunder.amount = msg.value;\r\n            funderStructs.push(newFunder);\r\n            LogContribution(msg.sender,msg.value);\r\n            return true;\r\n        }\r\n\r\n    function withdrawFunds()\r\n        public\r\n        returns (bool success)\r\n        {\r\n            if(msg.sender != owner) throw;\r\n            if (!isSuccess()) throw;\r\n            uint amount = this.balance;\r\n            if (!owner.send(amount)) throw;\r\n            LogWithdrawal(owner, this.balance);\r\n            return true;\r\n        }\r\n\r\n        function nameOfIt() returns (bool) {\r\n            return (true);\r\n        }\r\n\r\n    function sendRefunds()\r\n        public \r\n        returns (bool success)\r\n        {\r\n            if (msg.sender != owner) throw;\r\n            if (refundsSent) throw;\r\n            if (!hasFailed()) throw;\r\n\r\n            uint funderCount = funderStructs.length;\r\n            for (uint i=0;i<funderCount;i++) {\r\n                funderStructs[i].funder.send(funderStructs[i].amount);\r\n                LogRefundSent(funderStructs[i].funder, funderStructs[i].amount);\r\n            }\r\n            refundsSent = true;\r\n            return true;\r\n        }\r\n\r\n}",
  "sourcePath": "C:\\dapps\\B9LabClass\\contracts\\Mod4PopQuiz2.sol",
  "compiler": {
    "name": "solc",
    "version": "0.4.19+commit.c4cbbb05.Emscripten.clang"
  },
  "schemaVersion": "1.0.1",
  "updatedAt": "2018-04-07T22:59:15.256Z"
}