{
  "contractName": "MyContract",
  "abi": [
    {
      "constant": true,
      "inputs": [
        {
          "name": "",
          "type": "uint256"
        }
      ],
      "name": "funderStructs",
      "outputs": [
        {
          "name": "funder",
          "type": "address"
        },
        {
          "name": "amount",
          "type": "uint256"
        }
      ],
      "payable": false,
      "stateMutability": "view",
      "type": "function"
    },
    {
      "constant": true,
      "inputs": [],
      "name": "refundsSent",
      "outputs": [
        {
          "name": "",
          "type": "bool"
        }
      ],
      "payable": false,
      "stateMutability": "view",
      "type": "function"
    },
    {
      "constant": true,
      "inputs": [],
      "name": "deadline",
      "outputs": [
        {
          "name": "",
          "type": "uint256"
        }
      ],
      "payable": false,
      "stateMutability": "view",
      "type": "function"
    },
    {
      "constant": true,
      "inputs": [],
      "name": "goal",
      "outputs": [
        {
          "name": "",
          "type": "uint256"
        }
      ],
      "payable": false,
      "stateMutability": "view",
      "type": "function"
    },
    {
      "constant": true,
      "inputs": [],
      "name": "isOpen",
      "outputs": [
        {
          "name": "",
          "type": "bool"
        }
      ],
      "payable": false,
      "stateMutability": "view",
      "type": "function"
    },
    {
      "constant": true,
      "inputs": [],
      "name": "fundsRaised",
      "outputs": [
        {
          "name": "",
          "type": "uint256"
        }
      ],
      "payable": false,
      "stateMutability": "view",
      "type": "function"
    },
    {
      "constant": true,
      "inputs": [],
      "name": "owner",
      "outputs": [
        {
          "name": "",
          "type": "address"
        }
      ],
      "payable": false,
      "stateMutability": "view",
      "type": "function"
    },
    {
      "inputs": [
        {
          "name": "duration",
          "type": "uint256"
        },
        {
          "name": "_goal",
          "type": "uint256"
        }
      ],
      "payable": false,
      "stateMutability": "nonpayable",
      "type": "constructor"
    },
    {
      "anonymous": false,
      "inputs": [
        {
          "indexed": false,
          "name": "sender",
          "type": "address"
        },
        {
          "indexed": false,
          "name": "amount",
          "type": "uint256"
        }
      ],
      "name": "LogContribution",
      "type": "event"
    },
    {
      "anonymous": false,
      "inputs": [
        {
          "indexed": false,
          "name": "funder",
          "type": "address"
        },
        {
          "indexed": false,
          "name": "amount",
          "type": "uint256"
        }
      ],
      "name": "LogRefundSent",
      "type": "event"
    },
    {
      "anonymous": false,
      "inputs": [
        {
          "indexed": false,
          "name": "beneficiary",
          "type": "address"
        },
        {
          "indexed": false,
          "name": "amount",
          "type": "uint256"
        }
      ],
      "name": "LogWithdrawal",
      "type": "event"
    },
    {
      "constant": true,
      "inputs": [],
      "name": "doSomething",
      "outputs": [
        {
          "name": "",
          "type": "bool"
        }
      ],
      "payable": false,
      "stateMutability": "pure",
      "type": "function"
    },
    {
      "constant": true,
      "inputs": [],
      "name": "doSomethingElse",
      "outputs": [
        {
          "name": "",
          "type": "uint256"
        }
      ],
      "payable": false,
      "stateMutability": "pure",
      "type": "function"
    },
    {
      "constant": true,
      "inputs": [],
      "name": "isSuccess",
      "outputs": [
        {
          "name": "isIndeed",
          "type": "bool"
        }
      ],
      "payable": false,
      "stateMutability": "view",
      "type": "function"
    },
    {
      "constant": true,
      "inputs": [],
      "name": "hasFailed",
      "outputs": [
        {
          "name": "hasIndeed",
          "type": "bool"
        }
      ],
      "payable": false,
      "stateMutability": "view",
      "type": "function"
    },
    {
      "constant": false,
      "inputs": [],
      "name": "contribute",
      "outputs": [
        {
          "name": "success",
          "type": "bool"
        }
      ],
      "payable": true,
      "stateMutability": "payable",
      "type": "function"
    },
    {
      "constant": false,
      "inputs": [],
      "name": "withdrawFunds",
      "outputs": [
        {
          "name": "success",
          "type": "bool"
        }
      ],
      "payable": false,
      "stateMutability": "nonpayable",
      "type": "function"
    },
    {
      "constant": false,
      "inputs": [],
      "name": "nameOfIt",
      "outputs": [
        {
          "name": "",
          "type": "bool"
        }
      ],
      "payable": false,
      "stateMutability": "nonpayable",
      "type": "function"
    },
    {
      "constant": false,
      "inputs": [],
      "name": "sendRefunds",
      "outputs": [
        {
          "name": "success",
          "type": "bool"
        }
      ],
      "payable": false,
      "stateMutability": "nonpayable",
      "type": "function"
    }
  ],
  "bytecode": "0x6060604052341561000f57600080fd5b604051604080610b9883398101604052808051906020019091908051906020019091905050336000806101000a81548173ffffffffffffffffffffffffffffffffffffffff021916908373ffffffffffffffffffffffffffffffffffffffff160217905550814301600181905550806002819055506001600460006101000a81548160ff0219169083151502179055505050610ae8806100b06000396000f3006060604052600436106100db576000357c0100000000000000000000000000000000000000000000000000000000900463ffffffff16806302c06023146100e05780630b6c754b1461014a578063141b716914610177578063158c9875146101a457806324600fc3146101d157806329dcb0cf146101fe578063401938831461022757806347535d7b1461025057806354fc2cb21461027d5780636681b9fd146102a6578063708b1fed146102cf57806382692679146102fc5780638da5cb5b14610329578063d17842131461037e578063d7bb99ba146103ab575b600080fd5b34156100eb57600080fd5b61010160048080359060200190919050506103cd565b604051808373ffffffffffffffffffffffffffffffffffffffff1673ffffffffffffffffffffffffffffffffffffffff1681526020018281526020019250505060405180910390f35b341561015557600080fd5b61015d610420565b604051808215151515815260200191505060405180910390f35b341561018257600080fd5b61018a61042f565b604051808215151515815260200191505060405180910390f35b34156101af57600080fd5b6101b7610663565b604051808215151515815260200191505060405180910390f35b34156101dc57600080fd5b6101e4610676565b604051808215151515815260200191505060405180910390f35b341561020957600080fd5b61021161080d565b6040518082815260200191505060405180910390f35b341561023257600080fd5b61023a610813565b6040518082815260200191505060405180910390f35b341561025b57600080fd5b610263610819565b604051808215151515815260200191505060405180910390f35b341561028857600080fd5b61029061082c565b6040518082815260200191505060405180910390f35b34156102b157600080fd5b6102b9610835565b6040518082815260200191505060405180910390f35b34156102da57600080fd5b6102e261083b565b604051808215151515815260200191505060405180910390f35b341561030757600080fd5b61030f610856565b604051808215151515815260200191505060405180910390f35b341561033457600080fd5b61033c61085f565b604051808273ffffffffffffffffffffffffffffffffffffffff1673ffffffffffffffffffffffffffffffffffffffff16815260200191505060405180910390f35b341561038957600080fd5b610391610884565b604051808215151515815260200191505060405180910390f35b6103b361088d565b604051808215151515815260200191505060405180910390f35b6005818154811015156103dc57fe5b90600052602060002090600202016000915090508060000160009054906101000a900473ffffffffffffffffffffffffffffffffffffffff16908060010154905082565b60006002546003541015905090565b60008060008060009054906101000a900473ffffffffffffffffffffffffffffffffffffffff1673ffffffffffffffffffffffffffffffffffffffff163373ffffffffffffffffffffffffffffffffffffffff1614151561048f57600080fd5b600460019054906101000a900460ff16156104a957600080fd5b6104b161083b565b15156104bc57600080fd5b6005805490509150600090505b8181101561063f576005818154811015156104e057fe5b906000526020600020906002020160000160009054906101000a900473ffffffffffffffffffffffffffffffffffffffff1673ffffffffffffffffffffffffffffffffffffffff166108fc60058381548110151561053a57fe5b9060005260206000209060020201600101549081150290604051600060405180830381858888f19350505050507fdd896e09a507baf21c108627cf41469f315fb779fe323f5e1c6154fd5d869e6960058281548110151561059757fe5b906000526020600020906002020160000160009054906101000a900473ffffffffffffffffffffffffffffffffffffffff166005838154811015156105d857fe5b906000526020600020906002020160010154604051808373ffffffffffffffffffffffffffffffffffffffff1673ffffffffffffffffffffffffffffffffffffffff1681526020018281526020019250505060405180910390a180806001019150506104c9565b6001600460016101000a81548160ff02191690831515021790555060019250505090565b600460019054906101000a900460ff1681565b6000806000809054906101000a900473ffffffffffffffffffffffffffffffffffffffff1673ffffffffffffffffffffffffffffffffffffffff163373ffffffffffffffffffffffffffffffffffffffff161415156106d457600080fd5b6106dc610420565b15156106e757600080fd5b3073ffffffffffffffffffffffffffffffffffffffff163190506000809054906101000a900473ffffffffffffffffffffffffffffffffffffffff1673ffffffffffffffffffffffffffffffffffffffff166108fc829081150290604051600060405180830381858888f19350505050151561076257600080fd5b7fb4214c8c54fc7442f36d3682f59aebaf09358a4431835b30efb29d52cf9e1e916000809054906101000a900473ffffffffffffffffffffffffffffffffffffffff163073ffffffffffffffffffffffffffffffffffffffff1631604051808373ffffffffffffffffffffffffffffffffffffffff1673ffffffffffffffffffffffffffffffffffffffff1681526020018281526020019250505060405180910390a1600191505090565b60015481565b60025481565b600460009054906101000a900460ff1681565b60006005905090565b60035481565b6000600254600354108015610851575060015443115b905090565b60006001905090565b6000809054906101000a900473ffffffffffffffffffffffffffffffffffffffff1681565b60006001905090565b6000610897610a0c565b60003414156108a557600080fd5b6108ad610420565b156108b757600080fd5b6108bf61083b565b156108c957600080fd5b3460036000828254019250508190555033816000019073ffffffffffffffffffffffffffffffffffffffff16908173ffffffffffffffffffffffffffffffffffffffff1681525050348160200181815250506005805480600101828161092f9190610a3c565b9160005260206000209060020201600083909190915060008201518160000160006101000a81548173ffffffffffffffffffffffffffffffffffffffff021916908373ffffffffffffffffffffffffffffffffffffffff160217905550602082015181600101555050507f370510fa7e8c74204b8d2fd52b7a0837e535ea0c1491fd4e13730ce825e405243334604051808373ffffffffffffffffffffffffffffffffffffffff1673ffffffffffffffffffffffffffffffffffffffff1681526020018281526020019250505060405180910390a1600191505090565b6040805190810160405280600073ffffffffffffffffffffffffffffffffffffffff168152602001600081525090565b815481835581811511610a6957600202816002028360005260206000209182019101610a689190610a6e565b5b505050565b610ab991905b80821115610ab557600080820160006101000a81549073ffffffffffffffffffffffffffffffffffffffff0219169055600182016000905550600201610a74565b5090565b905600a165627a7a72305820ee5c655165bcabd4fd69822a385b8cd47558dd47050f9dfe3eeabfdf1910fed70029",
  "source": "pragma solidity ^0.4.6;\r\n\r\ncontract MyContract {\r\n\r\n    address public owner;\r\n    uint    public deadline;\r\n    uint    public goal;\r\n    uint    public fundsRaised;\r\n    bool    public isOpen;\r\n    bool    public refundsSent;\r\n\r\n    struct FunderStruct {\r\n        address funder;\r\n        uint amount;\r\n    }\r\n\r\n    FunderStruct[] public funderStructs;\r\n\r\n    event LogContribution(address sender, uint amount);\r\n    event LogRefundSent(address funder, uint amount);\r\n    event LogWithdrawal(address beneficiary, uint amount);\r\n\r\n    function MyContract(uint duration, uint _goal) {\r\n        owner = msg.sender;\r\n        deadline = block.number + duration;\r\n        goal = _goal;\r\n        isOpen = true;\r\n    }\r\n\r\n    function doSomething() pure returns (bool) {\r\n        return true;\r\n    } \r\n\r\n    function doSomethingElse() pure returns (uint) {\r\n        return 5;\r\n    }\r\n\r\n    function isSuccess()\r\n        public\r\n        constant\r\n        returns (bool isIndeed)\r\n        {\r\n            return(fundsRaised >= goal);\r\n        }\r\n\r\n    function hasFailed() \r\n        public\r\n        constant\r\n        returns (bool hasIndeed)\r\n        {\r\n            return (fundsRaised < goal && block.number > deadline);\r\n        }\r\n\r\n    function contribute()\r\n        public\r\n        payable\r\n        returns(bool success)\r\n        {\r\n            if (msg.value==0)throw;\r\n            if(isSuccess()) throw;\r\n            if(hasFailed()) throw;\r\n\r\n            fundsRaised += msg.value;\r\n            FunderStruct memory newFunder;\r\n            newFunder.funder = msg.sender;\r\n            newFunder.amount = msg.value;\r\n            funderStructs.push(newFunder);\r\n            LogContribution(msg.sender,msg.value);\r\n            return true;\r\n        }\r\n\r\n    function withdrawFunds()\r\n        public\r\n        returns (bool success)\r\n        {\r\n            if(msg.sender != owner) throw;\r\n            if (!isSuccess()) throw;\r\n            uint amount = this.balance;\r\n            if (!owner.send(amount)) throw;\r\n            LogWithdrawal(owner, this.balance);\r\n            return true;\r\n        }\r\n\r\n        function nameOfIt() returns (bool) {\r\n            return (true);\r\n        }\r\n\r\n    function sendRefunds()\r\n        public \r\n        returns (bool success)\r\n        {\r\n            if (msg.sender != owner) throw;\r\n            if (refundsSent) throw;\r\n            if (!hasFailed()) throw;\r\n\r\n            uint funderCount = funderStructs.length;\r\n            for (uint i=0;i<funderCount;i++) {\r\n                funderStructs[i].funder.send(funderStructs[i].amount);\r\n                LogRefundSent(funderStructs[i].funder, funderStructs[i].amount);\r\n            }\r\n            refundsSent = true;\r\n            return true;\r\n        }\r\n\r\n}",
  "sourcePath": "C:\\dapps\\my_project\\contracts\\MyContract.sol",
  "compiler": {
    "name": "solc",
    "version": "0.4.19+commit.c4cbbb05.Emscripten.clang"
  },
  "schemaVersion": "1.0.1",
  "updatedAt": "2018-04-02T00:08:54.913Z"
}