{
  "contractName": "Remittance",
  "abi": [
    {
      "constant": true,
      "inputs": [],
      "name": "ownerBalance",
      "outputs": [
        {
          "name": "",
          "type": "uint256"
        }
      ],
      "payable": false,
      "stateMutability": "view",
      "type": "function"
    },
    {
      "inputs": [],
      "payable": false,
      "stateMutability": "nonpayable",
      "type": "constructor"
    },
    {
      "constant": false,
      "inputs": [
        {
          "name": "hashValue",
          "type": "bytes32"
        },
        {
          "name": "deadline",
          "type": "uint256"
        }
      ],
      "name": "CreateRemittance",
      "outputs": [
        {
          "name": "",
          "type": "bool"
        }
      ],
      "payable": true,
      "stateMutability": "payable",
      "type": "function"
    },
    {
      "constant": false,
      "inputs": [
        {
          "name": "passCode",
          "type": "string"
        }
      ],
      "name": "ClaimRemittanceFunds",
      "outputs": [
        {
          "name": "",
          "type": "bool"
        }
      ],
      "payable": false,
      "stateMutability": "nonpayable",
      "type": "function"
    },
    {
      "constant": false,
      "inputs": [
        {
          "name": "hashValue",
          "type": "bytes32"
        }
      ],
      "name": "ReclaimFunds",
      "outputs": [
        {
          "name": "",
          "type": "bool"
        }
      ],
      "payable": false,
      "stateMutability": "nonpayable",
      "type": "function"
    },
    {
      "constant": false,
      "inputs": [],
      "name": "ClaimFees",
      "outputs": [
        {
          "name": "",
          "type": "bool"
        }
      ],
      "payable": false,
      "stateMutability": "nonpayable",
      "type": "function"
    },
    {
      "constant": false,
      "inputs": [],
      "name": "kill",
      "outputs": [],
      "payable": false,
      "stateMutability": "nonpayable",
      "type": "function"
    }
  ],
  "bytecode": "0x6060604052600a600355660293d6a1c8d800600455341561001f57600080fd5b336000806101000a81548173ffffffffffffffffffffffffffffffffffffffff021916908373ffffffffffffffffffffffffffffffffffffffff1602179055506000600260006101000a81548160ff0219169083151502179055506108d8806100896000396000f300606060405260043610610078576000357c0100000000000000000000000000000000000000000000000000000000900463ffffffff1680632954b1301461007d5780632b5917e5146100bc57806341c0e1b5146100f95780635c40fbc51461010e578063908d975314610183578063bedcf003146101b0575b600080fd5b341561008857600080fd5b6100a26004808035600019169060200190919050506101d9565b604051808215151515815260200191505060405180910390f35b6100df60048080356000191690602001909190803590602001909190505061039e565b604051808215151515815260200191505060405180910390f35b341561010457600080fd5b61010c6104b7565b005b341561011957600080fd5b610169600480803590602001908201803590602001908080601f0160208091040260200160405190810160405280939291908181526020018383808284378201915050505050509190505061052b565b604051808215151515815260200191505060405180910390f35b341561018e57600080fd5b61019661075d565b604051808215151515815260200191505060405180910390f35b34156101bb57600080fd5b6101c361086e565b6040518082815260200191505060405180910390f35b60006101e3610874565b60001515600260009054906101000a900460ff1615151415610398576001600260006101000a81548160ff021916908315150217905550600560008460001916600019168152602001908152602001600020606060405190810160405290816000820160009054906101000a900473ffffffffffffffffffffffffffffffffffffffff1673ffffffffffffffffffffffffffffffffffffffff1673ffffffffffffffffffffffffffffffffffffffff1681526020016001820154815260200160028201548152505090503373ffffffffffffffffffffffffffffffffffffffff16816000015173ffffffffffffffffffffffffffffffffffffffff161415156102eb57600080fd5b600081604001511115156102fe57600080fd5b80602001514311151561031057600080fd5b3373ffffffffffffffffffffffffffffffffffffffff166108fc82604001519081150290604051600060405180830381858888f19350505050151561035457600080fd5b600060056000856000191660001916815260200190815260200160002060020181905550600191506000600260006101000a81548160ff0219169083151502179055505b50919050565b60006103a8610874565b600454341115156103b857600080fd5b600354831015156103c857600080fd5b33816000019073ffffffffffffffffffffffffffffffffffffffff16908173ffffffffffffffffffffffffffffffffffffffff168152505082430181602001818152505060045434038160400181815101915081815250506004546001600082825401925050819055508060056000866000191660001916815260200190815260200160002060008201518160000160006101000a81548173ffffffffffffffffffffffffffffffffffffffff021916908373ffffffffffffffffffffffffffffffffffffffff1602179055506020820151816001015560408201518160020155905050600191505092915050565b3373ffffffffffffffffffffffffffffffffffffffff166000809054906101000a900473ffffffffffffffffffffffffffffffffffffffff1673ffffffffffffffffffffffffffffffffffffffff1614151561051257600080fd5b3373ffffffffffffffffffffffffffffffffffffffff16ff5b600080610536610874565b60001515600260009054906101000a900460ff1615151415610756576001600260006101000a81548160ff02191690831515021790555083336040518083805190602001908083835b6020831015156105a4578051825260208201915060208101905060208303925061057f565b6001836020036101000a0380198251168184511680821785525050505050509050018273ffffffffffffffffffffffffffffffffffffffff1673ffffffffffffffffffffffffffffffffffffffff166c010000000000000000000000000281526014019250505060405180910390209150600560008360001916600019168152602001908152602001600020606060405190810160405290816000820160009054906101000a900473ffffffffffffffffffffffffffffffffffffffff1673ffffffffffffffffffffffffffffffffffffffff1673ffffffffffffffffffffffffffffffffffffffff168152602001600182015481526020016002820154815250509050600081604001511115156106bb57600080fd5b806020015143111515156106ce57600080fd5b3373ffffffffffffffffffffffffffffffffffffffff166108fc82604001519081150290604051600060405180830381858888f19350505050151561071257600080fd5b600060056000846000191660001916815260200190815260200160002060020181905550600192506000600260006101000a81548160ff0219169083151502179055505b5050919050565b6000801515600260009054906101000a900460ff161515141561086b576001600260006101000a81548160ff0219169083151502179055503373ffffffffffffffffffffffffffffffffffffffff166000809054906101000a900473ffffffffffffffffffffffffffffffffffffffff1673ffffffffffffffffffffffffffffffffffffffff161415156107f057600080fd5b600060015411151561080157600080fd5b3373ffffffffffffffffffffffffffffffffffffffff166108fc6001549081150290604051600060405180830381858888f19350505050151561084357600080fd5b6000600181905550600190506000600260006101000a81548160ff0219169083151502179055505b90565b60015481565b606060405190810160405280600073ffffffffffffffffffffffffffffffffffffffff168152602001600081526020016000815250905600a165627a7a723058209ca1fa411102bcf4db5bf2e4ca8491d5cd9c0efc746aef1ce91823160ae6e2cf0029",
  "source": "pragma solidity ^0.4.6;\r\n\r\ncontract Remittance {\r\n    address owner;\r\n    uint public ownerBalance;\r\n    bool transferInProgress;\r\n    uint deadlineLimit = 10;\r\n    uint serviceFee = 0.0007255 ether;\r\n\r\n    struct remittanceStruct {\r\n        address remitter;\r\n        uint deadline;\r\n        uint amount;\r\n    }\r\n\r\n    mapping (bytes32 => remittanceStruct) remittanceRecords;\r\n\r\n    function Remittance() public {\r\n        owner = msg.sender;\r\n        transferInProgress = false;\r\n    }\r\n\r\n    modifier preventRecursion() {\r\n        if(transferInProgress == false) {\r\n            transferInProgress = true;\r\n\r\n            _;\r\n\r\n            transferInProgress = false;\r\n        }\r\n    }\r\n\r\n    function CreateRemittance(bytes32 hashValue, uint deadline) public payable returns (bool) {\r\n        require(msg.value > serviceFee);\r\n        require(deadline < deadlineLimit);\r\n        \r\n        remittanceStruct memory remittanceRecord;\r\n        remittanceRecord.remitter = msg.sender;\r\n        remittanceRecord.deadline = block.number + deadline;\r\n        remittanceRecord.amount += msg.value - serviceFee;\r\n        ownerBalance += serviceFee;\r\n\r\n        remittanceRecords[hashValue] = remittanceRecord;\r\n\r\n        return (true);\r\n    }\r\n\r\n    function ClaimRemittanceFunds(string passCode) public preventRecursion returns (bool) {\r\n        bytes32 _hashKey = keccak256(passCode,msg.sender);\r\n\r\n        remittanceStruct memory remittanceRecord = remittanceRecords[_hashKey];\r\n        require(remittanceRecord.amount > 0);\r\n        require(block.number <= remittanceRecord.deadline);\r\n\r\n        msg.sender.transfer(remittanceRecord.amount);\r\n\r\n        remittanceRecords[_hashKey].amount = 0;\r\n\r\n        return (true);\r\n    }\r\n\r\n    function ReclaimFunds(bytes32 hashValue) public preventRecursion returns (bool) {\r\n        remittanceStruct memory remittanceRecord = remittanceRecords[hashValue];\r\n        require(remittanceRecord.remitter == msg.sender);\r\n        require(remittanceRecord.amount > 0);\r\n        require(block.number > remittanceRecord.deadline);\r\n\r\n        msg.sender.transfer(remittanceRecord.amount);\r\n\r\n        remittanceRecords[hashValue].amount = 0;\r\n\r\n        return (true);\r\n    }\r\n\r\n    function ClaimFees() public preventRecursion returns (bool) {\r\n        require(owner==msg.sender);\r\n        require(ownerBalance > 0);\r\n\r\n        msg.sender.transfer(ownerBalance);\r\n\r\n        ownerBalance = 0;\r\n\r\n        return (true);\r\n    }\r\n\r\n    function kill() public {\r\n        require(owner==msg.sender);\r\n\r\n        selfdestruct(msg.sender);\r\n    }    \r\n}",
  "sourcePath": "C:\\dapps\\B9LabClass\\contracts\\Remittance.sol",
  "compiler": {
    "name": "solc",
    "version": "0.4.19+commit.c4cbbb05.Emscripten.clang"
  },
  "schemaVersion": "1.0.1",
  "updatedAt": "2018-04-07T23:44:10.817Z"
}