{
  "contractName": "RemittanceTest",
  "abi": [
    {
      "constant": true,
      "inputs": [
        {
          "name": "input",
          "type": "string"
        },
        {
          "name": "validAccount",
          "type": "address"
        }
      ],
      "name": "GetHash",
      "outputs": [
        {
          "name": "",
          "type": "bytes32"
        }
      ],
      "payable": false,
      "stateMutability": "pure",
      "type": "function"
    }
  ],
  "bytecode": "0x6060604052341561000f57600080fd5b6101ba8061001e6000396000f300606060405260043610610041576000357c0100000000000000000000000000000000000000000000000000000000900463ffffffff168063eb9f9c3614610046575b600080fd5b341561005157600080fd5b6100c0600480803590602001908201803590602001908080601f0160208091040260200160405190810160405280939291908181526020018383808284378201915050505050509190803573ffffffffffffffffffffffffffffffffffffffff169060200190919050506100de565b60405180826000191660001916815260200191505060405180910390f35b600082826040518083805190602001908083835b60208310151561011757805182526020820191506020810190506020830392506100f2565b6001836020036101000a0380198251168184511680821785525050505050509050018273ffffffffffffffffffffffffffffffffffffffff1673ffffffffffffffffffffffffffffffffffffffff166c010000000000000000000000000281526014019250505060405180910390209050929150505600a165627a7a723058203ce2c323d6748f19f5fade7fbfc3c9d0b65a12d0b0daf6bcb4001b404ac2fefa0029",
  "source": "pragma solidity ^0.4.6;\r\n\r\ncontract RemittanceTest {\r\n    function GetHash(string input, address validAccount) public pure returns (bytes32) {\r\n        return (keccak256(input,validAccount));\r\n    }\r\n}",
  "sourcePath": "C:\\dapps\\B9LabClass\\contracts\\RemittanceTest.sol",
  "compiler": {
    "name": "solc",
    "version": "0.4.19+commit.c4cbbb05.Emscripten.clang"
  },
  "schemaVersion": "1.0.1",
  "updatedAt": "2018-04-07T22:59:15.294Z"
}