{
  "contractName": "Splitter",
  "abi": [
    {
      "inputs": [
        {
          "name": "_depositer",
          "type": "address"
        },
        {
          "name": "_recipientOne",
          "type": "address"
        },
        {
          "name": "_recipientTwo",
          "type": "address"
        }
      ],
      "payable": false,
      "stateMutability": "nonpayable",
      "type": "constructor"
    },
    {
      "anonymous": false,
      "inputs": [
        {
          "indexed": false,
          "name": "beneficiary",
          "type": "address"
        },
        {
          "indexed": false,
          "name": "amount",
          "type": "uint256"
        }
      ],
      "name": "LogDeposit",
      "type": "event"
    },
    {
      "anonymous": false,
      "inputs": [
        {
          "indexed": false,
          "name": "beneficiary",
          "type": "address"
        },
        {
          "indexed": false,
          "name": "amount",
          "type": "uint256"
        }
      ],
      "name": "LogWithdrawal",
      "type": "event"
    },
    {
      "constant": true,
      "inputs": [],
      "name": "GetTotalBalance",
      "outputs": [
        {
          "name": "",
          "type": "uint256"
        }
      ],
      "payable": false,
      "stateMutability": "view",
      "type": "function"
    },
    {
      "constant": false,
      "inputs": [],
      "name": "DepositEther",
      "outputs": [
        {
          "name": "",
          "type": "bool"
        }
      ],
      "payable": true,
      "stateMutability": "payable",
      "type": "function"
    },
    {
      "constant": false,
      "inputs": [],
      "name": "WithdrawBalance",
      "outputs": [
        {
          "name": "",
          "type": "bool"
        }
      ],
      "payable": false,
      "stateMutability": "nonpayable",
      "type": "function"
    },
    {
      "constant": true,
      "inputs": [
        {
          "name": "beneficiary",
          "type": "address"
        }
      ],
      "name": "GetBalanceOf",
      "outputs": [
        {
          "name": "",
          "type": "uint256"
        }
      ],
      "payable": false,
      "stateMutability": "view",
      "type": "function"
    }
  ],
  "bytecode": "0x6060604052341561000f57600080fd5b6040516060806106de8339810160405280805190602001909190805190602001909190805190602001909190505082600160006101000a81548173ffffffffffffffffffffffffffffffffffffffff021916908373ffffffffffffffffffffffffffffffffffffffff16021790555081600260006101000a81548173ffffffffffffffffffffffffffffffffffffffff021916908373ffffffffffffffffffffffffffffffffffffffff16021790555080600360006101000a81548173ffffffffffffffffffffffffffffffffffffffff021916908373ffffffffffffffffffffffffffffffffffffffff1602179055505050506105cc806101126000396000f300606060405260043610610062576000357c0100000000000000000000000000000000000000000000000000000000900463ffffffff168063253a96e9146100675780633699f494146100895780633bb56940146100b2578063a39d716d146100ff575b600080fd5b61006f61012c565b604051808215151515815260200191505060405180910390f35b341561009457600080fd5b61009c6101ec565b6040518082815260200191505060405180910390f35b34156100bd57600080fd5b6100e9600480803573ffffffffffffffffffffffffffffffffffffffff1690602001909190505061020b565b6040518082815260200191505060405180910390f35b341561010a57600080fd5b610112610253565b604051808215151515815260200191505060405180910390f35b6000803411151561013c57600080fd5b600160009054906101000a900473ffffffffffffffffffffffffffffffffffffffff1673ffffffffffffffffffffffffffffffffffffffff163373ffffffffffffffffffffffffffffffffffffffff1614151561019857600080fd5b6101e7600260009054906101000a900473ffffffffffffffffffffffffffffffffffffffff16600360009054906101000a900473ffffffffffffffffffffffffffffffffffffffff1634610414565b905090565b60003073ffffffffffffffffffffffffffffffffffffffff1631905090565b60008060008373ffffffffffffffffffffffffffffffffffffffff1673ffffffffffffffffffffffffffffffffffffffff168152602001908152602001600020549050919050565b60008060008060003373ffffffffffffffffffffffffffffffffffffffff1673ffffffffffffffffffffffffffffffffffffffff168152602001908152602001600020541115156102a357600080fd5b3373ffffffffffffffffffffffffffffffffffffffff166108fc6000803373ffffffffffffffffffffffffffffffffffffffff1673ffffffffffffffffffffffffffffffffffffffff168152602001908152602001600020549081150290604051600060405180830381858888f193505050501561040c576000803373ffffffffffffffffffffffffffffffffffffffff1673ffffffffffffffffffffffffffffffffffffffff16815260200190815260200160002054905060008060003373ffffffffffffffffffffffffffffffffffffffff1673ffffffffffffffffffffffffffffffffffffffff168152602001908152602001600020819055507fb4214c8c54fc7442f36d3682f59aebaf09358a4431835b30efb29d52cf9e1e913382604051808373ffffffffffffffffffffffffffffffffffffffff1673ffffffffffffffffffffffffffffffffffffffff1681526020018281526020019250505060405180910390a15b600191505090565b60008060028381151561042357fe5b049050806000808773ffffffffffffffffffffffffffffffffffffffff1673ffffffffffffffffffffffffffffffffffffffff168152602001908152602001600020600082825401925050819055507f1b851e1031ef35a238e6c67d0c7991162390df915f70eaf9098dbf0b175a61988582604051808373ffffffffffffffffffffffffffffffffffffffff1673ffffffffffffffffffffffffffffffffffffffff1681526020018281526020019250505060405180910390a1806000808673ffffffffffffffffffffffffffffffffffffffff1673ffffffffffffffffffffffffffffffffffffffff168152602001908152602001600020600082825401925050819055507f1b851e1031ef35a238e6c67d0c7991162390df915f70eaf9098dbf0b175a61988482604051808373ffffffffffffffffffffffffffffffffffffffff1673ffffffffffffffffffffffffffffffffffffffff1681526020018281526020019250505060405180910390a1600191505093925050505600a165627a7a723058203e634e63dd045b8b972ed4b0754d8e038a5ac55a9a62ad1988b5c23e6c2efeba0029",
  "source": "pragma solidity ^0.4.6;\r\n\r\ncontract Splitter {\r\n    mapping (address => uint) balances;\r\n    address depositer;\r\n    address recipientOne;\r\n    address recipientTwo;\r\n\r\n    event LogDeposit(address beneficiary, uint amount);\r\n    event LogWithdrawal(address beneficiary, uint amount);\r\n\r\n    function Splitter(address _depositer, address _recipientOne, address _recipientTwo) {\r\n        depositer = _depositer;\r\n        recipientOne = _recipientOne;\r\n        recipientTwo = _recipientTwo;\r\n    }\r\n\r\n    function GetTotalBalance() public view returns (uint) {\r\n        return (address(this).balance);\r\n    }\r\n\r\n    function DepositEther() public payable returns (bool) {\r\n        require(msg.value > 0);\r\n        require(msg.sender == depositer);\r\n\r\n        return SplitDeposit(recipientOne,recipientTwo,msg.value);\r\n    }\r\n\r\n    function SplitDeposit(address beneficiaryOne, address beneficiaryTwo, uint totalDeposit) internal returns (bool) {\r\n        uint depositPerAccount = totalDeposit/2;\r\n        balances[beneficiaryOne] += depositPerAccount;\r\n        LogDeposit(beneficiaryOne,depositPerAccount);\r\n        balances[beneficiaryTwo] += depositPerAccount;    \r\n        LogDeposit(beneficiaryTwo,depositPerAccount);\r\n\r\n        return true;  \r\n    }\r\n\r\n    function WithdrawBalance() public returns (bool) {\r\n        require(balances[msg.sender] > 0);\r\n\r\n        if (msg.sender.send(balances[msg.sender])) {\r\n            uint withdrawalAmount = balances[msg.sender];\r\n            balances[msg.sender] = 0;\r\n            LogWithdrawal(msg.sender,withdrawalAmount);\r\n        }\r\n\r\n        return true;\r\n    }\r\n\r\n    function GetBalanceOf(address beneficiary) public view returns (uint) {\r\n        return (balances[beneficiary]);\r\n    }\r\n\r\n\r\n\r\n}",
  "sourcePath": "C:\\dapps\\my_project\\contracts\\Splitter.sol",
  "compiler": {
    "name": "solc",
    "version": "0.4.19+commit.c4cbbb05.Emscripten.clang"
  },
  "schemaVersion": "1.0.1",
  "updatedAt": "2018-04-02T00:08:54.920Z"
}