{
  "contractName": "Splitter",
  "abi": [
    {
      "inputs": [],
      "payable": false,
      "stateMutability": "nonpayable",
      "type": "constructor"
    },
    {
      "anonymous": false,
      "inputs": [
        {
          "indexed": false,
          "name": "beneficiary",
          "type": "address"
        },
        {
          "indexed": false,
          "name": "amount",
          "type": "uint256"
        }
      ],
      "name": "LogDeposit",
      "type": "event"
    },
    {
      "anonymous": false,
      "inputs": [
        {
          "indexed": false,
          "name": "beneficiary",
          "type": "address"
        },
        {
          "indexed": false,
          "name": "amount",
          "type": "uint256"
        }
      ],
      "name": "LogWithdrawal",
      "type": "event"
    },
    {
      "constant": false,
      "inputs": [
        {
          "name": "recipientOne",
          "type": "address"
        },
        {
          "name": "recipientTwo",
          "type": "address"
        }
      ],
      "name": "DepositEther",
      "outputs": [
        {
          "name": "",
          "type": "bool"
        }
      ],
      "payable": true,
      "stateMutability": "payable",
      "type": "function"
    },
    {
      "constant": false,
      "inputs": [],
      "name": "kill",
      "outputs": [],
      "payable": false,
      "stateMutability": "nonpayable",
      "type": "function"
    },
    {
      "constant": false,
      "inputs": [],
      "name": "WithdrawBalance",
      "outputs": [
        {
          "name": "",
          "type": "bool"
        }
      ],
      "payable": false,
      "stateMutability": "nonpayable",
      "type": "function"
    },
    {
      "constant": true,
      "inputs": [
        {
          "name": "beneficiary",
          "type": "address"
        }
      ],
      "name": "GetBalanceOf",
      "outputs": [
        {
          "name": "",
          "type": "uint256"
        }
      ],
      "payable": false,
      "stateMutability": "view",
      "type": "function"
    }
  ],
  "bytecode": "0x6060604052341561000f57600080fd5b33600160006101000a81548173ffffffffffffffffffffffffffffffffffffffff021916908373ffffffffffffffffffffffffffffffffffffffff1602179055506000600160146101000a81548160ff0219169083151502179055506106dc8061007a6000396000f300606060405260043610610062576000357c0100000000000000000000000000000000000000000000000000000000900463ffffffff1680633bb569401461006757806341c0e1b5146100b4578063963e8803146100c9578063a39d716d1461012e575b600080fd5b341561007257600080fd5b61009e600480803573ffffffffffffffffffffffffffffffffffffffff1690602001909190505061015b565b6040518082815260200191505060405180910390f35b34156100bf57600080fd5b6100c76101a3565b005b610114600480803573ffffffffffffffffffffffffffffffffffffffff1690602001909190803573ffffffffffffffffffffffffffffffffffffffff16906020019091905050610218565b604051808215151515815260200191505060405180910390f35b341561013957600080fd5b61014161023b565b604051808215151515815260200191505060405180910390f35b60008060008373ffffffffffffffffffffffffffffffffffffffff1673ffffffffffffffffffffffffffffffffffffffff168152602001908152602001600020549050919050565b3373ffffffffffffffffffffffffffffffffffffffff16600160009054906101000a900473ffffffffffffffffffffffffffffffffffffffff1673ffffffffffffffffffffffffffffffffffffffff161415156101ff57600080fd5b3373ffffffffffffffffffffffffffffffffffffffff16ff5b6000803411151561022857600080fd5b61023383833461044d565b905092915050565b6000801515600160149054906101000a900460ff161515141561044a5760018060146101000a81548160ff02191690831515021790555060008060003373ffffffffffffffffffffffffffffffffffffffff1673ffffffffffffffffffffffffffffffffffffffff168152602001908152602001600020541115156102bf57600080fd5b3373ffffffffffffffffffffffffffffffffffffffff166108fc6000803373ffffffffffffffffffffffffffffffffffffffff1673ffffffffffffffffffffffffffffffffffffffff168152602001908152602001600020549081150290604051600060405180830381858888f19350505050151561033d57600080fd5b7fb4214c8c54fc7442f36d3682f59aebaf09358a4431835b30efb29d52cf9e1e91336000803373ffffffffffffffffffffffffffffffffffffffff1673ffffffffffffffffffffffffffffffffffffffff16815260200190815260200160002054604051808373ffffffffffffffffffffffffffffffffffffffff1673ffffffffffffffffffffffffffffffffffffffff1681526020018281526020019250505060405180910390a160008060003373ffffffffffffffffffffffffffffffffffffffff1673ffffffffffffffffffffffffffffffffffffffff16815260200190815260200160002081905550600190506000600160146101000a81548160ff0219169083151502179055505b90565b6000806000808411151561046057600080fd5b60028481151561046c57fe5b04915060028481151561047b57fe5b069050816000808873ffffffffffffffffffffffffffffffffffffffff1673ffffffffffffffffffffffffffffffffffffffff168152602001908152602001600020600082825401925050819055507f1b851e1031ef35a238e6c67d0c7991162390df915f70eaf9098dbf0b175a61988683604051808373ffffffffffffffffffffffffffffffffffffffff1673ffffffffffffffffffffffffffffffffffffffff1681526020018281526020019250505060405180910390a1816000808773ffffffffffffffffffffffffffffffffffffffff1673ffffffffffffffffffffffffffffffffffffffff168152602001908152602001600020600082825401925050819055507f1b851e1031ef35a238e6c67d0c7991162390df915f70eaf9098dbf0b175a61988583604051808373ffffffffffffffffffffffffffffffffffffffff1673ffffffffffffffffffffffffffffffffffffffff1681526020018281526020019250505060405180910390a1806000803373ffffffffffffffffffffffffffffffffffffffff1673ffffffffffffffffffffffffffffffffffffffff168152602001908152602001600020600082825401925050819055507f1b851e1031ef35a238e6c67d0c7991162390df915f70eaf9098dbf0b175a61983382604051808373ffffffffffffffffffffffffffffffffffffffff1673ffffffffffffffffffffffffffffffffffffffff1681526020018281526020019250505060405180910390a160019250505093925050505600a165627a7a72305820352c08687756ac6be67cd606318848bcbed160efdecc3b0daf93901519030fea0029",
  "source": "pragma solidity ^0.4.6;\r\n\r\ncontract Splitter {\r\n    mapping (address => uint) balances;\r\n    address owner;\r\n    bool transferInProgress;\r\n\r\n    event LogDeposit(address beneficiary, uint amount);\r\n    event LogWithdrawal(address beneficiary, uint amount);\r\n\r\n    function Splitter() {\r\n        owner = msg.sender;\r\n        transferInProgress = false;\r\n    }\r\n\r\n    function DepositEther(address recipientOne, address recipientTwo) public payable returns (bool) {\r\n        require(msg.value > 0);\r\n\r\n        return SplitDeposit(recipientOne,recipientTwo,msg.value);\r\n    }\r\n\r\n    function kill() public {\r\n        require(owner==msg.sender);\r\n\r\n        selfdestruct(msg.sender);\r\n    }\r\n\r\n    function SplitDeposit(address beneficiaryOne, address beneficiaryTwo, uint totalDeposit) internal returns (bool) {\r\n        require(totalDeposit > 0);\r\n        \r\n        uint depositPerAccount = totalDeposit/2;\r\n        uint depositPerAccountRemainder = totalDeposit % 2;\r\n        balances[beneficiaryOne] += depositPerAccount;\r\n        LogDeposit(beneficiaryOne,depositPerAccount);\r\n        balances[beneficiaryTwo] += depositPerAccount;    \r\n        LogDeposit(beneficiaryTwo,depositPerAccount);\r\n        balances[msg.sender] += depositPerAccountRemainder;\r\n        LogDeposit(msg.sender,depositPerAccountRemainder);\r\n\r\n        return true;  \r\n    }\r\n\r\n    modifier preventRecursion() {\r\n        if(transferInProgress == false) {\r\n            transferInProgress = true;\r\n\r\n            _;\r\n\r\n            transferInProgress = false;\r\n        }\r\n    }\r\n\r\n    function WithdrawBalance() public preventRecursion returns (bool) {\r\n        require(balances[msg.sender] > 0);\r\n\r\n        msg.sender.transfer(balances[msg.sender]);\r\n        LogWithdrawal(msg.sender,balances[msg.sender]);\r\n        balances[msg.sender] = 0;\r\n\r\n        return true;\r\n    }\r\n\r\n    function GetBalanceOf(address beneficiary) public view returns (uint) {\r\n        return (balances[beneficiary]);\r\n    }\r\n\r\n\r\n\r\n}",
  "sourcePath": "C:\\dapps\\B9LabClass\\contracts\\Splitter.sol",
  "compiler": {
    "name": "solc",
    "version": "0.4.19+commit.c4cbbb05.Emscripten.clang"
  },
  "schemaVersion": "1.0.1",
  "updatedAt": "2018-04-07T22:59:15.264Z"
}